:100000000C94AB000C94D3000C94D3000C94B60366
:100010000C94E0030C940A040C94D3000C94D300C9
:100020000C94D3000C94FE000C94D3000C94D300D9
:100030000C94D3000C94D3000C94D3000C94D300F4
:100040000C9445080C942F020C94D3000C94D3000C
:100050000C94D3000C94D3000C94D3000C94D300D4
:100060000C94D3000C94D30000C2010001001100D5
:1000700011000C0000E100000A002500250021000D
:10008000009600001900390039003600127A00008D
:100090001F004600460044008070000022004D0012
:1000A0004D004A00004B00003600750075007200DC
:1000B000403800004A009C009C0099008025000008
:1000C0007200EC00EC00E900C0120000E900DA0167
:1000D000DA01D70160090000D701B603B603B30304
:1000E000B0040000B3036E076E076B072C0100001D
:1000F000DC0EC11DC11DBE1D000000002400270034
:100100002A0000000000250028002B00000000004D
:100110002300260029000404040404040404020249
:100120000202020203030303030301020408102076
:100130004080010204081020010204081020000081
:100140000007000201000003040600000000000098
:10015000000063015C0111241FBECFEFD4E0DEBFBD
:10016000CDBF11E0A0E0B1E0E2E2F2E102C0059013
:100170000D92AC38B107D9F713E0ACE8B1E001C09B
:100180001D92AE31B107E1F711E0C4E5D1E004C042
:100190002297FE010E940009C235D107C9F70E94CB
:1001A000EA060C9404090C94000020E730E0F90101
:1001B00080818E7F8083E0EBF0E080818C7F808384
:1001C000A1EBB0E08C91877F8C93E6EBF0E080812F
:1001D0008F7D8083F90180818D7F80838C91876002
:1001E0008C9383E890E09093B1018093B00183E811
:1001F0008093B20080818160808308951F920F9266
:100200000FB60F9211248F939F938091B00180932A
:10021000B2008091AE019091AF0101969093AF0131
:100220008093AE018D37910541F580911301909136
:100230001401019690931401809313018E3F910550
:1002400031F481E090E09093140180931301809148
:100250001501909116010296909316018093150155
:100260008E3F910531F481E090E0909316018093E8
:1002700015011092AF011092AE019F918F910F90D6
:100280000FBE0F901F9018958130910559F46F5F44
:100290007F4F89F48CE991E066E047E020E00E941E
:1002A00048060895892B39F46F5F7F4F21F48CE95C
:1002B00091E00E942605089580E090E06FEF7FEFC7
:1002C0000E944401089581E090E06FEF7FEF0E946B
:1002D000440108950F931F930CE911E0C80160E0F9
:1002E00071E00E9428076091130170911401C80108
:1002F0004AE050E00E940008C8016AE071E00E94F4
:1003000028076091150170911601C8014AE050E07C
:100310000E942A081F910F910895682F84E991E0A7
:100320000E94E50290E00895CF93DF93EC0105C0B1
:10033000992787FD90950E948D0189918823C1F7A7
:10034000DF91CF91089587E291E00E9494018BE4C0
:1003500091E00E94940182E791E00E9494018AE773
:1003600091E00E9494010895682F8CE891E00E942A
:10037000E50290E00895CF93DF93EC018091900126
:1003800090919101892B19F420E030E008C08CE8AD
:1003900091E00E94B202888319822FEF3FEFC901DA
:1003A000DF91CF910895DF93CF9300D000D0CDB7E8
:1003B000DEB7109299011092980180E290E00E94BD
:1003C0008D01CE0101960E94BB01892BD1F0CE0197
:1003D00003960E94BB01892BA1F089819A818736FF
:1003E000910579F48B819C818236910521F08436C8
:1003F000910539F403C00E94A30107C00E946A015D
:1004000004C087E191E00E94940110929101109242
:1004100090010F900F900F900F90CF91DF91089562
:1004200076FE04C00E94D3018FEB78220895CF930B
:10043000DF93EC018091980190919901892B19F437
:1004400020E030E008C084E991E00E94B202888395
:1004500019822FEF3FEFC901DF91CF9108951F92CD
:100460000F920FB60F9211242F933F934F935F93E8
:100470006F937F938F939F93AF93BF93EF93FF936C
:10048000DF93CF9300D0CDB7DEB7272D30E0C90181
:1004900083709070892B11F07A941CC073FE0AC08F
:1004A000CE0101960E941702892B21F089810E94BA
:1004B000490310C080E00E944903882319F08E325E
:1004C00031F402C088E001C080E4782A03C090E0E3
:1004D0000E94B4010F900F90CF91DF91FF91EF91A7
:1004E000BF91AF919F918F917F916F915F914F914C
:1004F0003F912F910F900FBE0F901F9018958CE891
:1005000091E062EB71E040E250E00E94A50284E9D4
:1005100091E062ED71E04FEF50E00E94A502089576
:1005200082E060E070E041E050E020EF0E940C03C8
:100530008CE991E040E855E260E070E00E9434040C
:100540000E947F020E94D5000895FC018FB7F894A5
:1005500071836083538342831782168215821482CB
:100560008FBF0895DC014FB7F89414968D919C913C
:100570001597892B11F4E0E025C016968D919C917A
:100580001797ED91FC911197E80FF91FE081019603
:1005900017969C938E93169712962D913C911397D4
:1005A0008217930730F0821B930B17969C938E93C0
:1005B000169714968D919C911597019715969C937B
:1005C0008E9314974FBF8E2F08951F93CF93DF9371
:1005D000EC01162F4FB7F8942C813D816A817B8105
:1005E0002617370798F48E819F81820F931F0E94F0
:1005F000C808E881F981E80FF91F10838C819D817B
:1006000001969D838C834FBF8FEF02C04FBF80E068
:10061000DF91CF911F910895FB01203F29F423988A
:10062000249A2298259804C0239A2498259A229ADD
:10063000452B11F450E401C050EC203F11F440E090
:1006400001C040E1682F70E081FD02C030E001C0D0
:1006500038E061707070660F771F660F771F75E066
:10066000EE0FFF1F7A95E1F7862F8E2B922F927057
:10067000892B922F9170892B852B842B832B8CBDFA
:10068000822F90E0969587959695879581708DBD80
:1006900008958EBD8EB508950F931F93CF93DF936A
:1006A000FC01718976957170A481B581938177235E
:1006B00029F08C91892309F454C004C08C918923BA
:1006C00009F04FC08185928520E001972FEF8F3F81
:1006D0009207D9F7C385D485A481B581138160E0E1
:1006E00031E040E050E000E0CE01202F01972FEFF5
:1006F0008F3F9207D9F78C91812311F0632B03C0B0
:10070000832F80956823330F4F5F5F4F483051052B
:1007100059F78585968520E001972FEF8F3F920747
:10072000D9F771116095809113032091140390E023
:1007300001968F73907030E08217930779F0E09103
:100740001303F0E0ED52FD4F60838091130390E0BE
:1007500001968F7390708093130303C08189816029
:10076000818BDF91CF911F910F9108951F920F926E
:100770000FB60F9211242F933F934F935F936F9374
:100780007F938F939F93AF93BF93EF93FF9380914A
:10079000D1029091D202009711F00E944C03FF9178
:1007A000EF91BF91AF919F918F917F916F915F91E9
:1007B0004F913F912F910F900FBE0F901F90189562
:1007C0001F920F920FB60F9211242F933F934F93C6
:1007D0005F936F937F938F939F93AF93BF93EF93A9
:1007E000FF938091D1029091D202009711F00E9464
:1007F0004C03FF91EF91BF91AF919F918F917F91AA
:100800006F915F914F913F912F910F900FBE0F907D
:100810001F9018951F920F920FB60F9211242F93CD
:100820003F934F935F936F937F938F939F93AF9378
:10083000BF93EF93FF938091D1029091D2020097E2
:1008400011F00E944C03FF91EF91BF91AF919F91E6
:100850008F917F916F915F914F913F912F910F9069
:100860000FBE0F901F901895CF92DF92EF92FF92DC
:100870000F931F93CF93DF93EC017A018B01188ABA
:100880001F861E861D861C861B861A86198620E0FA
:1008900030E06901CC0CDD1CC20ED31EB601660F20
:1008A000771F660F771FAB0148595F4FFA0185919B
:1008B0009591A591B4918E159F05A007B107E9F414
:1008C000FB01E459FF4F859194919A878987FB0139
:1008D000E259FF4F859194919C878B87FB01E059EA
:1008E000FF4F859194919E878D87FB01EE58FF4FB6
:1008F00085919491988B8F8706C02F5F3F4F2C3046
:10090000310509F0C6CF8D859E85892B09F449C034
:100910004A81463108F03DC090916800483010F49B
:1009200084E005C04E3010F082E001C081E0892BE8
:1009300080936800483028F4EDE6F0E0ADE6B0E0E2
:100940000BC04E3028F0ECE6F0E0ACE6B0E004C0BE
:10095000EBE6F0E0ABE6B0E05081483040F481E0F7
:1009600090E002C0880F991F4A95E2F710C0242F2B
:1009700030E04E3018F42850304002C02E50304045
:1009800081E090E002C0880F991F2A95E2F7852B3D
:100990008C938F85988920E001972FEF8F3F9207E6
:1009A000D9F78091D1029091D2028C179D0781F0E6
:1009B00089898E7F898B9FB7F89410921303809159
:1009C000130380931403D093D202C093D1029FBF2C
:1009D000DF91CF911F910F91FF90EF90DF90CF901B
:1009E0000895FC014281463180F5483028F4EDE657
:1009F000F0E0ADE6B0E00BC04E3028F4EBE6F0E0FE
:100A0000ABE6B0E004C0ECE6F0E0ACE6B0E050816C
:100A1000483040F481E090E002C0880F991F4A9569
:100A2000E2F710C0242F30E04E3018F42850304048
:100A300002C02E50304081E090E002C0880F991F24
:100A40002A95E2F7809585238C930895FC0186E82A
:100A500091E091838083CF010E94F10408950F9368
:100A60001F93DC011F968D919C915097892B09F45F
:100A7000B6C08091D1029091D2028A179B07A1F053
:100A800051968C9151978E7F51968C9351979FB729
:100A9000F894109213038091130380931403B0937E
:100AA000D202A093D1029FBF0FB7F89451968C91B8
:100AB00051971796ED91FC91189716962C911697D1
:100AC00081FF88C08081822B80831F968D919C91AD
:100AD0005097059620E001972FEF8F3F9207D9F7A7
:100AE00051968C91519781FF35C031E040E050E044
:100AF00070E010E0832F90E0862397231796ED9106
:100B0000FC91189716962C911697892B29F08081C5
:100B100020952823208303C08081822B80831F9609
:100B20008D919C915097212F01972FEF8F3F920726
:100B3000D9F7330F4F5F5F4F48305105D9F61796FD
:100B4000ED91FC911897908116968C91169780954F
:100B5000892333C031E040E050E070E010E0832FA3
:100B600090E0862397231796ED91FC91189716969F
:100B70002C911697892B21F08081822B808304C0D1
:100B800080812095282320831F968D919C915097DA
:100B9000212F01972FEF8F3F9207D9F7330F4F5F28
:100BA0005F4F48305105D9F61796ED91FC91189793
:100BB000808116969C911697892B80830FBF1F9674
:100BC0008D919C91509720E001972FEF8F3F9207D6
:100BD000D9F705C0808120952823208376CF1F91E7
:100BE0000F9108951F93CF93DF93EC01162F862F5B
:100BF00060E00E946C06898981FD04C0812F61E05C
:100C00000E9492061A83212F30E0C901865D9E4F13
:100C1000FC0184918B832A5E3E4FF9016491E62F9B
:100C2000F0E0EE0FFF1FE45FFE4F859194919D83EE
:100C30008C83DF91CF911F910895FF920F931F93A3
:100C40008C01F62E862F61E00E946C068F2D61E0EC
:100C50000E9492068F2D90E0FC01E65DFE4FE4912C
:100C6000D8011696EC9316978A5E9E4FFC0164910C
:100C7000E62FF0E0EE0FFF1FEE5FFE4F859194919F
:100C800018969C938E9317971F910F91FF9008953C
:100C9000FF920F931F938C01F62E86E891E0F801E6
:100CA0009183808312861186148613861686158694
:100CB000108A178681892170220F8C7F822B818B6D
:100CC000C801642F0E941D06C8016F2D0E94F20505
:100CD0001F910F91FF900895482F50E0CA01865D43
:100CE0009E4FFC0124914A5E5E4FFA018491882355
:100CF000C1F0E82FF0E0EE0FFF1FE850FF4FA59185
:100D0000B491662341F49FB7F8948C912095822387
:100D10008C939FBF08959FB7F8948C91822B8C93EE
:100D20009FBF0895482F50E0CA01825C9E4FFC018E
:100D30002491CA01865D9E4FFC0134914A5E5E4F4C
:100D4000FA019491992309F444C0222351F12330EC
:100D500071F0243028F42130A1F0223011F514C0B4
:100D60002630B1F02730C1F02430D9F404C080918E
:100D700080008F7703C0809180008F7D80938000FA
:100D800010C084B58F7702C084B58F7D84BD09C043
:100D90008091B0008F7703C08091B0008F7D8093E9
:100DA000B000E92FF0E0EE0FFF1FEE5FFE4FA591C0
:100DB000B491662341F49FB7F8948C9130958323C6
:100DC0008C939FBF08959FB7F8948C91832B8C933D
:100DD0009FBF08950E948D080E9490020E941002F9
:100DE000FDCF0F931F93CF93DF938C01EB0109C0CD
:100DF0002196D801ED91FC910190F081E02DC80180
:100E0000099568816623A1F7DF91CF911F910F911A
:100E10000895EF92FF920F931F93CF93DF938C016E
:100E20007B01EA010CC0D7016D917D01D801ED91E4
:100E3000FC910190F081E02DC80109952197209740
:100E400091F7DF91CF911F910F91FF90EF9008954F
:100E5000DC01ED91FC910280F381E02D099508956C
:100E60002F923F924F925F926F927F928F929F92BA
:100E7000AF92BF92CF92DF92EF92FF920F931F93A8
:100E8000DF93CF93CDB7DEB7A0970FB6F894DEBF50
:100E90000FBECDBF1C016A017B01411551056105E3
:100EA000710549F440E350E060E070E020E030E09C
:100EB0000E94CA0756C0882499245401422E552402
:100EC0006624772401E010E00C0F1D1F080D191D8A
:100ED000C701B601A30192010E94DC08F8016083FA
:100EE0000894811C911CA11CB11CC701B601A3016F
:100EF00092010E94DC08C901DA016C017D01C11474
:100F0000D104E104F104F1F681E0E82EF12CEC0EBD
:100F1000FD1EE80CF91C3E010894611C711CD501F2
:100F2000C4010197A109B1096C01C818D90816C0FC
:100F3000F601EE0DFF1D40814A3010F4405D01C006
:100F4000495C552747FD5095652F752FC10120E05D
:100F500030E00E94CA070894E108F1086E147F048B
:100F600039F7A0960FB6F894DEBF0FBECDBFCF9174
:100F7000DF911F910F91FF90EF90DF90CF90BF9086
:100F8000AF909F908F907F906F905F904F903F9029
:100F90002F900895EF92FF920F931F93CF93DF93BB
:100FA000EC017A018B012115310541F4E881F981C9
:100FB0000190F081E02D642F09951BC02A30310586
:100FC000B1F477FF10C04DE250E060E070E020E047
:100FD00030E00E94CA0710950095F094E094E11C5F
:100FE000F11C011D111DCE01B801A7012AE00E94CC
:100FF0003007DF91CF911F910F91FF90EF900895EF
:10100000EF92FF920F931F937B019A010027F7FC49
:101010000095102FB801A7010E94CA071F910F91D8
:10102000FF90EF9008950F931F938C014DE050E0D7
:1010300060E070E020E030E00E94CA07C8014AE0AA
:1010400050E060E070E020E030E00E94CA071F91AD
:101050000F910895CF92DF92EF92FF920F931F931B
:101060008C016B019A01EE24D7FCE094FE2CB701B1
:10107000A6010E94CA07C8010E9413081F910F9180
:10108000FF90EF90DF90CF9008951F920F920FB6D0
:101090000F9211242F933F938F939F93AF93BF93FE
:1010A0008091190390911A03A0911B03B0911C0326
:1010B00030911D030196A11DB11D232F2D5F2D37EA
:1010C00020F02D570196A11DB11D20931D03809383
:1010D000190390931A03A0931B03B0931C038091F0
:1010E000150390911603A0911703B0911803019670
:1010F000A11DB11D8093150390931603A0931703B0
:10110000B0931803BF91AF919F918F913F912F9111
:101110000F900FBE0F901F901895789484B5826041
:1011200084BD84B5816084BD85B5826085BD85B58B
:10113000816085BDEEE6F0E0808181608083E1E83A
:10114000F0E0108280818260808380818160808372
:10115000E0E8F0E0808181608083E1EBF0E0808175
:1011600084608083E0EBF0E0808181608083EAE747
:10117000F0E08081846080838081826080838081D0
:10118000816080838081806880831092C10008958F
:10119000AA1BBB1B51E107C0AA1FBB1FA617B7079D
:1011A00010F0A61BB70B881F991F5A95A9F78095B9
:1011B0009095BC01CD010895A1E21A2EAA1BBB1B7C
:1011C000FD010DC0AA1FBB1FEE1FFF1FA217B30713
:1011D000E407F50720F0A21BB30BE40BF50B661F29
:1011E000771F881F991F1A9469F7609570958095ED
:1011F00090959B01AC01BD01CF010895EE0FFF1F3B
:101200000590F491E02D099411E0C4E5D1E004C00B
:10121000FE010E9400092296C635D107C9F7F8944D
:02122000FFCFFE
:101222003C73656E736F72333E00203C7761746568
:10123200723E0001000200496E76616C69642043CF
:101242006F6D6D616E64003C6D3D44726167726FDB
:101252007665206279207777772E7365656564738A
:10126200747564696F2E636F6D3E003C613D446529
:101272006D6F20536B6574636820746F2073686FA1
:101282007720686F7720746F2070726F6772616D5C
:101292003E003C733D302E313E003C683D302E31E5
:0C12A2003E00000000002F05F1060907C7
:00000001FF
