:100000000C94AB000C94D3000C94D3000C94B0016E
:100010000C94DA010C9404020C94D3000C94D300D9
:100020000C94D3000C94D3000C94D3000C94D30004
:100030000C94D3000C94D3000C94D3000C94D300F4
:100040000C9466040C94D3000C94D3000C94D3004D
:100050000C94D3000C94D3000C94D3000C94D300D4
:100060000C94D3000C94D30000C2010001001100D5
:1000700011000C0000E100000A002500250021000D
:10008000009600001900390039003600127A00008D
:100090001F004600460044008070000022004D0012
:1000A0004D004A00004B00003600750075007200DC
:1000B000403800004A009C009C0099008025000008
:1000C0007200EC00EC00E900C0120000E900DA0167
:1000D000DA01D70160090000D701B603B603B30304
:1000E000B0040000B3036E076E076B072C0100001D
:1000F000DC0EC11DC11DBE1D000000002400270034
:100100002A0000000000250028002B00000000004D
:100110002300260029000404040404040404020249
:100120000202020203030303030301020408102076
:100130004080010204081020010204081020000081
:100140000007000201000003040600000000000098
:100150000000F400ED0011241FBECFEFD4E0DEBF9D
:10016000CDBF11E0A0E0B1E0E0EAFEE002C0059002
:100170000D92A232B107D9F711E0A2E2B1E001C0BD
:100180001D92A138B107E1F711E0C4E5D1E004C048
:100190002297FE010E943F07C235D107C9F70E948E
:1001A000C0050C9443070C9400008130910559F46C
:1001B0006F5F7F4F89F482E291E066E047E020E0E4
:1001C0000E9442040895892B39F46F5F7F4F21F418
:1001D00082E291E00E942003089580E090E06FEFBA
:1001E0007FEF0E94D500089581E090E06FEF7FEFF0
:1001F0000E94D500089582E291E060E071E00E94E3
:10020000FE05609113017091140182E291E04AE0D1
:1002100050E00E94D60682E291E06AE071E00E941E
:10022000FE05609115017091160182E291E04AE0AD
:1002300050E00E94000780911301909114010196F3
:1002400090931401809313018E3F910531F481E066
:1002500090E0909314018093130180911501909187
:1002600016010296909316018093150168EE73E0D3
:1002700080E090E00E94AE04089582E291E040E8C0
:1002800055E260E070E00E942E0208950F931F93E4
:10029000CF93DF93FC01718976957170A481B5814C
:1002A0009381772329F08C91892309F454C004C0E9
:1002B0008C91892309F04FC08185928520E00197B8
:1002C0002FEF8F3F9207D9F7C385D485A481B581DD
:1002D000138160E031E040E050E000E0CE01202FEB
:1002E00001972FEF8F3F9207D9F78C91812311F05F
:1002F000632B03C0832F80956823330F4F5F5F4FBD
:100300004830510559F78585968520E001972FEFF4
:100310008F3F9207D9F771116095809176012091F6
:10032000770190E001968F73907030E08217930709
:1003300079F0E0917601F0E0EA5CFE4F6083809115
:10034000760190E001968F7390708093760103C0E0
:1003500081898160818BDF91CF911F910F910895E9
:100360001F920F920FB60F9211242F933F934F932A
:100370005F936F937F938F939F93AF93BF93EF930D
:10038000FF938091340190913501009711F00E9404
:100390004601FF91EF91BF91AF919F918F917F9116
:1003A0006F915F914F913F912F910F900FBE0F90E2
:1003B0001F9018951F920F920FB60F9211242F9332
:1003C0003F934F935F936F937F938F939F93AF93DD
:1003D000BF93EF93FF938091340190913501009783
:1003E00011F00E944601FF91EF91BF91AF919F9153
:1003F0008F917F916F915F914F913F912F910F90CE
:100400000FBE0F901F9018951F920F920FB60F926C
:1004100011242F933F934F935F936F937F938F9309
:100420009F93AF93BF93EF93FF938091340190918B
:100430003501009711F00E944601FF91EF91BF91A5
:10044000AF919F918F917F916F915F914F913F916C
:100450002F910F900FBE0F901F901895CF92DF92A3
:10046000EF92FF920F931F93CF93DF93EC017A01EA
:100470008B01188A1F861E861D861C861B861A867F
:10048000198620E030E06901CC0CDD1CC20ED31EC1
:10049000B601660F771F660F771FAB0148595F4F94
:1004A000FA0185919591A591B4918E159F05A007AC
:1004B000B107E9F4FB01E459FF4F859194919A87C4
:1004C0008987FB01E259FF4F859194919C878B8727
:1004D000FB01E059FF4F859194919E878D87FB0129
:1004E000EE58FF4F85919491988B8F8706C02F5FB0
:1004F0003F4F2C30310509F0C6CF8D859E85892B65
:1005000009F449C04A81463108F03DC09091680025
:10051000483010F484E005C04E3010F082E001C095
:1005200081E0892B80936800483028F4EDE6F0E004
:10053000ADE6B0E00BC04E3028F0ECE6F0E0ACE603
:10054000B0E004C0EBE6F0E0ABE6B0E0508148304C
:1005500040F481E090E002C0880F991F4A95E2F7CD
:1005600010C0242F30E04E3018F42850304002C024
:100570002E50304081E090E002C0880F991F2A95EC
:10058000E2F7852B8C938F85988920E001972FEFD8
:100590008F3F9207D9F780913401909135018C17E4
:1005A0009D0781F089898E7F898B9FB7F89410927F
:1005B00076018091760180937701D0933501C093C5
:1005C00034019FBFDF91CF911F910F91FF90EF906A
:1005D000DF90CF900895FC014281463180F548308C
:1005E00028F4EDE6F0E0ADE6B0E00BC04E3028F4C4
:1005F000EBE6F0E0ABE6B0E004C0ECE6F0E0ACE641
:10060000B0E05081483040F481E090E002C0880FB3
:10061000991F4A95E2F710C0242F30E04E3018F4AD
:100620002850304002C02E50304081E090E002C09F
:10063000880F991F2A95E2F7809585238C9308955A
:10064000FC018BE191E091838083CF010E94EB025A
:1006500008950F931F93DC011F968D919C915097E5
:10066000892B09F4B6C080913401909135018A1725
:100670009B07A1F051968C9151978E7F51968C9348
:1006800051979FB7F89410927601809176018093EC
:100690007701B0933501A09334019FBF0FB7F89451
:1006A00051968C9151971796ED91FC91189716964B
:1006B0002C91169781FF88C08081822B80831F96A2
:1006C0008D919C915097059620E001972FEF8F3FD9
:1006D0009207D9F751968C91519781FF35C031E03F
:1006E00040E050E070E010E0832F90E086239723F5
:1006F0001796ED91FC91189716962C911697892BC9
:1007000029F0808120952823208303C08081822BBB
:1007100080831F968D919C915097212F01972FEFE9
:100720008F3F9207D9F7330F4F5F5F4F4830510526
:10073000D9F61796ED91FC911897908116968C91A9
:1007400016978095892333C031E040E050E070E097
:1007500010E0832F90E0862397231796ED91FC916C
:10076000189716962C911697892B21F08081822B51
:10077000808304C080812095282320831F968D913B
:100780009C915097212F01972FEF8F3F9207D9F718
:10079000330F4F5F5F4F48305105D9F61796ED91F3
:1007A000FC911897808116969C911697892B8083CF
:1007B0000FBF1F968D919C91509720E001972FEFCE
:1007C0008F3F9207D9F705C0808120952823208389
:1007D00076CF1F910F9108951F93CF93DF93EC0174
:1007E000162F862F60E00E944205898981FD04C092
:1007F000812F61E00E9468051A83212F30E0C90132
:10080000865D9E4FFC0184918B832A5E3E4FF901E9
:100810006491E62FF0E0EE0FFF1FE45FFE4F85913D
:1008200094919D838C83DF91CF911F910895FF92C6
:100830000F931F938C01F62E862F61E00E944205D4
:100840008F2D61E00E9468058F2D90E0FC01E65D30
:10085000FE4FE491D8011696EC9316978A5E9E4F50
:10086000FC016491E62FF0E0EE0FFF1FEE5FFE4FFC
:100870008591949118969C938E9317971F910F9141
:10088000FF900895FF920F931F938C01F62E8BE13A
:1008900091E0F80191838083128611861486138675
:1008A00016861586108A178681892170220F8C7F03
:1008B000822B818BC801642F0E941704C8016F2D01
:1008C0000E94EC031F910F91FF9008951F920F92C9
:1008D0000FB60F9211242F933F938F939F93AF9353
:1008E000BF9380917C0190917D01A0917E01B09198
:1008F0007F01309180010196A11DB11D232F2D5F35
:100900002D3720F02D570196A11DB11D2093800198
:1009100080937C0190937D01A0937E01B0937F0131
:100920008091780190917901A0917A01B0917B0139
:100930000196A11DB11D8093780190937901A09338
:100940007A01B0937B01BF91AF919F918F913F91BD
:100950002F910F900FBE0F901F9018959B01AC0127
:100960007FB7F8948091780190917901A0917A01F4
:10097000B0917B0166B5A89B05C06F3F19F0019649
:10098000A11DB11D7FBFBA2FA92F982F8827860FD1
:10099000911DA11DB11D62E0880F991FAA1FBB1FE9
:1009A0006A95D1F7BC012DC0FFB7F894809178010A
:1009B00090917901A0917A01B0917B01E6B5A89B55
:1009C00005C0EF3F19F00196A11DB11DFFBFBA2F61
:1009D000A92F982F88278E0F911DA11DB11DE2E030
:1009E000880F991FAA1FBB1FEA95D1F7861B970B8B
:1009F000885E9340C8F221503040404050406851DA
:100A00007C4F211531054105510571F60895789403
:100A100084B5826084BD84B5816084BD85B5826003
:100A200085BD85B5816085BDEEE6F0E080818160A1
:100A30008083E1E8F0E010828081826080838081A1
:100A400081608083E0E8F0E0808181608083E1EB79
:100A5000F0E0808184608083E0EBF0E08081816061
:100A60008083EAE7F0E08081846080838081826017
:100A70008083808181608083808180688083109200
:100A8000C1000895482F50E0CA01865D9E4FFC01C9
:100A900024914A5E5E4FFA0184918823C1F0E82FC9
:100AA000F0E0EE0FFF1FE850FF4FA591B4916623D1
:100AB00041F49FB7F8948C91209582238C939FBF2B
:100AC00008959FB7F8948C91822B8C939FBF0895C3
:100AD000482F50E0CA01825C9E4FFC012491CA015C
:100AE000865D9E4FFC0134914A5E5E4FFA019491FF
:100AF000992309F444C0222351F1233071F02430AA
:100B000028F42130A1F0223011F514C02630B1F0C4
:100B10002730C1F02430D9F404C0809180008F7751
:100B200003C0809180008F7D8093800010C084B5C9
:100B30008F7702C084B58F7D84BD09C08091B000DD
:100B40008F7703C08091B0008F7D8093B000E92F34
:100B5000F0E0EE0FFF1FEE5FFE4FA591B49166230C
:100B600041F49FB7F8948C91309583238C939FBF69
:100B700008959FB7F8948C91832B8C939FBF089511
:100B80000E9407050E943D010E94FB00FDCF0F93CC
:100B90001F93CF93DF938C01EB0109C02196D801FD
:100BA000ED91FC910190F081E02DC80109956881DB
:100BB0006623A1F7DF91CF911F910F910895EF92D6
:100BC000FF920F931F93CF93DF938C017B01EA0178
:100BD0000CC0D7016D917D01D801ED91FC91019080
:100BE000F081E02DC80109952197209791F7DF91B9
:100BF000CF911F910F91FF90EF900895DC01ED913F
:100C0000FC910280F381E02D099508952F923F9287
:100C10004F925F926F927F928F929F92AF92BF920C
:100C2000CF92DF92EF92FF920F931F93DF93CF93B8
:100C3000CDB7DEB7A0970FB6F894DEBF0FBECDBF1D
:100C40001C016A017B01411551056105710549F4DB
:100C500040E350E060E070E020E030E00E94A00659
:100C600056C0882499245401422E552466247724A2
:100C700001E010E00C0F1D1F080D191DC701B60182
:100C8000A30192010E941B07F80160830894811C54
:100C9000911CA11CB11CC701B601A30192010E94C5
:100CA0001B07C901DA016C017D01C114D104E10403
:100CB000F104F1F681E0E82EF12CEC0EFD1EE80CBB
:100CC000F91C3E010894611C711CD501C4010197F7
:100CD000A109B1096C01C818D90816C0F601EE0DBA
:100CE000FF1D40814A3010F4405D01C0495C55272A
:100CF00047FD5095652F752FC10120E030E00E941F
:100D0000A0060894E108F1086E147F0439F7A09654
:100D10000FB6F894DEBF0FBECDBFCF91DF911F910C
:100D20000F91FF90EF90DF90CF90BF90AF909F908A
:100D30008F907F906F905F904F903F902F9008958D
:100D4000EF92FF920F931F93CF93DF93EC017A0101
:100D50008B012115310541F4E881F9810190F08181
:100D6000E02D642F09951BC02A303105B1F477FFBF
:100D700010C04DE250E060E070E020E030E00E9402
:100D8000A00610950095F094E094E11CF11C011D63
:100D9000111DCE01B801A7012AE00E940606DF91CD
:100DA000CF911F910F91FF90EF900895EF92FF92D6
:100DB0000F931F937B019A010027F7FC0095102FDA
:100DC000B801A7010E94A0061F910F91FF90EF901C
:100DD00008950F931F938C014DE050E060E070E0A8
:100DE00020E030E00E94A006C8014AE050E060E048
:100DF00070E020E030E00E94A0061F910F9108955E
:100E0000CF92DF92EF92FF920F931F938C016B01B1
:100E10009A01EE24D7FCE094FE2CB701A6010E94B3
:100E2000A006C8010E94E9061F910F91FF90EF9064
:100E3000DF90CF900895A1E21A2EAA1BBB1BFD01E3
:100E40000DC0AA1FBB1FEE1FFF1FA217B307E407A9
:100E5000F50720F0A21BB30BE40BF50B661F771F01
:100E6000881F991F1A9469F76095709580959095E1
:100E70009B01AC01BD01CF010895EE0FFF1F05904E
:100E8000F491E02D099411E0C4E5D1E004C0FE0125
:100E90000E943F072296C635D107C9F7F894FFCFC5
:100EA0003C73656E736F72333E00203C77617465EE
:100EB000723E0001000200000000002903C705DFA8
:020EC00005002B
:00000001FF
